{
  "address": "0x5FbDB2315678afecb367f032d93F642f64180aa3",
  "abi": [
    {
      "inputs": [],
      "stateMutability": "nonpayable",
      "type": "constructor"
    },
    {
      "inputs": [],
      "name": "implementation",
      "outputs": [
        {
          "internalType": "address",
          "name": "",
          "type": "address"
        }
      ],
      "stateMutability": "view",
      "type": "function"
    },
    {
      "inputs": [
        {
          "internalType": "address",
          "name": "_dao",
          "type": "address"
        },
        {
          "internalType": "bytes",
          "name": "_data",
          "type": "bytes"
        }
      ],
      "name": "prepareInstallation",
      "outputs": [
        {
          "internalType": "address",
          "name": "plugin",
          "type": "address"
        },
        {
          "components": [
            {
              "internalType": "address[]",
              "name": "helpers",
              "type": "address[]"
            },
            {
              "components": [
                {
                  "internalType": "enum PermissionLib.Operation",
                  "name": "operation",
                  "type": "uint8"
                },
                {
                  "internalType": "address",
                  "name": "where",
                  "type": "address"
                },
                {
                  "internalType": "address",
                  "name": "who",
                  "type": "address"
                },
                {
                  "internalType": "address",
                  "name": "condition",
                  "type": "address"
                },
                {
                  "internalType": "bytes32",
                  "name": "permissionId",
                  "type": "bytes32"
                }
              ],
              "internalType": "struct PermissionLib.MultiTargetPermission[]",
              "name": "permissions",
              "type": "tuple[]"
            }
          ],
          "internalType": "struct IPluginSetup.PreparedSetupData",
          "name": "preparedSetupData",
          "type": "tuple"
        }
      ],
      "stateMutability": "nonpayable",
      "type": "function"
    },
    {
      "inputs": [
        {
          "internalType": "address",
          "name": "_dao",
          "type": "address"
        },
        {
          "components": [
            {
              "internalType": "address",
              "name": "plugin",
              "type": "address"
            },
            {
              "internalType": "address[]",
              "name": "currentHelpers",
              "type": "address[]"
            },
            {
              "internalType": "bytes",
              "name": "data",
              "type": "bytes"
            }
          ],
          "internalType": "struct IPluginSetup.SetupPayload",
          "name": "_payload",
          "type": "tuple"
        }
      ],
      "name": "prepareUninstallation",
      "outputs": [
        {
          "components": [
            {
              "internalType": "enum PermissionLib.Operation",
              "name": "operation",
              "type": "uint8"
            },
            {
              "internalType": "address",
              "name": "where",
              "type": "address"
            },
            {
              "internalType": "address",
              "name": "who",
              "type": "address"
            },
            {
              "internalType": "address",
              "name": "condition",
              "type": "address"
            },
            {
              "internalType": "bytes32",
              "name": "permissionId",
              "type": "bytes32"
            }
          ],
          "internalType": "struct PermissionLib.MultiTargetPermission[]",
          "name": "permissions",
          "type": "tuple[]"
        }
      ],
      "stateMutability": "view",
      "type": "function"
    },
    {
      "inputs": [
        {
          "internalType": "address",
          "name": "_dao",
          "type": "address"
        },
        {
          "internalType": "uint16",
          "name": "_currentBuild",
          "type": "uint16"
        },
        {
          "components": [
            {
              "internalType": "address",
              "name": "plugin",
              "type": "address"
            },
            {
              "internalType": "address[]",
              "name": "currentHelpers",
              "type": "address[]"
            },
            {
              "internalType": "bytes",
              "name": "data",
              "type": "bytes"
            }
          ],
          "internalType": "struct IPluginSetup.SetupPayload",
          "name": "_payload",
          "type": "tuple"
        }
      ],
      "name": "prepareUpdate",
      "outputs": [
        {
          "internalType": "bytes",
          "name": "initData",
          "type": "bytes"
        },
        {
          "components": [
            {
              "internalType": "address[]",
              "name": "helpers",
              "type": "address[]"
            },
            {
              "components": [
                {
                  "internalType": "enum PermissionLib.Operation",
                  "name": "operation",
                  "type": "uint8"
                },
                {
                  "internalType": "address",
                  "name": "where",
                  "type": "address"
                },
                {
                  "internalType": "address",
                  "name": "who",
                  "type": "address"
                },
                {
                  "internalType": "address",
                  "name": "condition",
                  "type": "address"
                },
                {
                  "internalType": "bytes32",
                  "name": "permissionId",
                  "type": "bytes32"
                }
              ],
              "internalType": "struct PermissionLib.MultiTargetPermission[]",
              "name": "permissions",
              "type": "tuple[]"
            }
          ],
          "internalType": "struct IPluginSetup.PreparedSetupData",
          "name": "preparedSetupData",
          "type": "tuple"
        }
      ],
      "stateMutability": "nonpayable",
      "type": "function"
    },
    {
      "inputs": [
        {
          "internalType": "bytes4",
          "name": "_interfaceId",
          "type": "bytes4"
        }
      ],
      "name": "supportsInterface",
      "outputs": [
        {
          "internalType": "bool",
          "name": "",
          "type": "bool"
        }
      ],
      "stateMutability": "view",
      "type": "function"
    }
  ],
  "transactionHash": "0xd360e64c0e7d7bd5ec94baf8e72a1638b6038087d17ab693ff5bda93b24e3ec1",
  "args": [],
  "numDeployments": 1,
  "solcInputHash": "44794720c35c3ca4f11bf3d82c2435dc",
  "bytecode": "0x60a060405234801561001057600080fd5b5060405161001d9061004b565b604051809103906000f080158015610039573d6000803e3d6000fd5b506001600160a01b0316608052610058565b6155b68061177083390190565b6080516116cd6100a360003960008181609c0152818161021b015281816103150152818161040f015281816106560152818161071a0152818161080401526108ee01526116cd6000f3fe60806040523480156200001157600080fd5b50600436106200005e5760003560e01c806301ffc9a714620000635780635c60da1b146200008f5780639cb0a12414620000c7578063a8a9c29e14620000ed578063f10832f11462000114575b600080fd5b6200007a6200007436600462000ad9565b6200013b565b60405190151581526020015b60405180910390f35b6040516001600160a01b037f000000000000000000000000000000000000000000000000000000000000000016815260200162000086565b620000de620000d836600462000b3b565b62000173565b60405162000086919062000bf6565b62000104620000fe36600462000c56565b6200059a565b6040516200008692919062000d9d565b6200012b6200012536600462000dcf565b620005c2565b6040516200008692919062000e59565b60006001600160e01b0319821663099718b560e41b14806200016d57506301ffc9a760e01b6001600160e01b03198316145b92915050565b60408051600480825260a08201909252606091816020015b6040805160a0810182526000808252602080830182905292820181905260608201819052608082015282526000199092019101816200018b5750506040805160a0810190915260018152909150602080820190620001ec9085018562000e87565b6001600160a01b03168152602001846001600160a01b0316815260200160006001600160a01b031681526020017f00000000000000000000000000000000000000000000000000000000000000006001600160a01b0316638377c4606040518163ffffffff1660e01b8152600401602060405180830381865afa15801562000278573d6000803e3d6000fd5b505050506040513d601f19601f820116820180604052508101906200029e919062000ea5565b81525081600081518110620002b757620002b762000ebf565b60209081029190910101526040805160a081019091528060018152602090810190620002e69085018562000e87565b6001600160a01b03168152602001846001600160a01b0316815260200160006001600160a01b031681526020017f00000000000000000000000000000000000000000000000000000000000000006001600160a01b0316632caf024b6040518163ffffffff1660e01b8152600401602060405180830381865afa15801562000372573d6000803e3d6000fd5b505050506040513d601f19601f8201168201806040525081019062000398919062000ea5565b81525081600181518110620003b157620003b162000ebf565b60209081029190910101526040805160a081019091528060018152602090810190620003e09085018562000e87565b6001600160a01b03168152602001846001600160a01b0316815260200160006001600160a01b031681526020017f00000000000000000000000000000000000000000000000000000000000000006001600160a01b031663c9c4bfca6040518163ffffffff1660e01b8152600401602060405180830381865afa1580156200046c573d6000803e3d6000fd5b505050506040513d601f19601f8201168201806040525081019062000492919062000ea5565b81525081600281518110620004ab57620004ab62000ebf565b60209081029190910101526040805160a081019091528060018152602001846001600160a01b03168152602001836000016020810190620004ed919062000e87565b6001600160a01b0316815260200160006001600160a01b03168152602001846001600160a01b0316630729d0546040518163ffffffff1660e01b8152600401602060405180830381865afa1580156200054a573d6000803e3d6000fd5b505050506040513d601f19601f8201168201806040525081019062000570919062000ea5565b8152508160038151811062000589576200058962000ebf565b602002602001018190525092915050565b6060620005ba604051806040016040528060608152602001606081525090565b935093915050565b6000620005e2604051806040016040528060608152602001606081525090565b6000620005f28486018662000ed5565b604080516001600160a01b038916602482015282511515604482015260208084015161ffff1660648084019190915283518084039091018152608490920190925290810180516001600160e01b0316638398525960e01b1790529091506200067c907f00000000000000000000000000000000000000000000000000000000000000009062000a72565b60408051600480825260a0820190925291945060009190816020015b6040805160a08101825260008082526020808301829052928201819052606082018190526080820152825260001990920191018162000698579050506040805160a081019091529091508060008152602001856001600160a01b03168152602001886001600160a01b0316815260200160006001600160a01b031681526020017f00000000000000000000000000000000000000000000000000000000000000006001600160a01b0316638377c4606040518163ffffffff1660e01b8152600401602060405180830381865afa15801562000777573d6000803e3d6000fd5b505050506040513d601f19601f820116820180604052508101906200079d919062000ea5565b81525081600081518110620007b657620007b662000ebf565b60209081029190910101526040805160a081019091528060008152602001856001600160a01b03168152602001886001600160a01b0316815260200160006001600160a01b031681526020017f00000000000000000000000000000000000000000000000000000000000000006001600160a01b0316632caf024b6040518163ffffffff1660e01b8152600401602060405180830381865afa15801562000861573d6000803e3d6000fd5b505050506040513d601f19601f8201168201806040525081019062000887919062000ea5565b81525081600181518110620008a057620008a062000ebf565b60209081029190910101526040805160a081019091528060008152602001856001600160a01b03168152602001886001600160a01b0316815260200160006001600160a01b031681526020017f00000000000000000000000000000000000000000000000000000000000000006001600160a01b031663c9c4bfca6040518163ffffffff1660e01b8152600401602060405180830381865afa1580156200094b573d6000803e3d6000fd5b505050506040513d601f19601f8201168201806040525081019062000971919062000ea5565b815250816002815181106200098a576200098a62000ebf565b60209081029190910101526040805160a081019091528060008152602001886001600160a01b03168152602001856001600160a01b0316815260200160006001600160a01b03168152602001886001600160a01b0316630729d0546040518163ffffffff1660e01b8152600401602060405180830381865afa15801562000a15573d6000803e3d6000fd5b505050506040513d601f19601f8201168201806040525081019062000a3b919062000ea5565b8152508160038151811062000a545762000a5462000ebf565b60200260200101819052508083602001819052505050935093915050565b600062000a80838362000a87565b9392505050565b6000828260405162000a999062000acb565b62000aa692919062000f4a565b604051809103906000f08015801562000ac3573d6000803e3d6000fd5b509392505050565b6107278062000f7183390190565b60006020828403121562000aec57600080fd5b81356001600160e01b03198116811462000a8057600080fd5b80356001600160a01b038116811462000b1d57600080fd5b919050565b60006060828403121562000b3557600080fd5b50919050565b6000806040838503121562000b4f57600080fd5b62000b5a8362000b05565b9150602083013567ffffffffffffffff81111562000b7757600080fd5b62000b858582860162000b22565b9150509250929050565b600081516003811062000bb257634e487b7160e01b600052602160045260246000fd5b8352506020818101516001600160a01b0390811691840191909152604080830151821690840152606080830151909116908301526080908101519082015260a00190565b6020808252825182820181905260009190848201906040850190845b8181101562000c375762000c2883855162000b8f565b93850193925060010162000c12565b50909695505050505050565b803561ffff8116811462000b1d57600080fd5b60008060006060848603121562000c6c57600080fd5b62000c778462000b05565b925062000c876020850162000c43565b9150604084013567ffffffffffffffff81111562000ca457600080fd5b62000cb28682870162000b22565b9150509250925092565b6000815180845260005b8181101562000ce45760208185018101518683018201520162000cc6565b506000602082860101526020601f19601f83011685010191505092915050565b805160408084528151908401819052600091602091908201906060860190845b8181101562000d4b5783516001600160a01b03168352928401929184019160010162000d24565b50508483015186820387850152805180835290840192506000918401905b8083101562000d925762000d7f82855162000b8f565b9150848401935060018301925062000d69565b509695505050505050565b60408152600062000db2604083018562000cbc565b828103602084015262000dc6818562000d04565b95945050505050565b60008060006040848603121562000de557600080fd5b62000df08462000b05565b9250602084013567ffffffffffffffff8082111562000e0e57600080fd5b818601915086601f83011262000e2357600080fd5b81358181111562000e3357600080fd5b87602082850101111562000e4657600080fd5b6020830194508093505050509250925092565b6001600160a01b038316815260406020820181905260009062000e7f9083018462000d04565b949350505050565b60006020828403121562000e9a57600080fd5b62000a808262000b05565b60006020828403121562000eb857600080fd5b5051919050565b634e487b7160e01b600052603260045260246000fd5b60006040828403121562000ee857600080fd5b6040516040810181811067ffffffffffffffff8211171562000f1a57634e487b7160e01b600052604160045260246000fd5b6040528235801515811462000f2e57600080fd5b815262000f3e6020840162000c43565b60208201529392505050565b6001600160a01b038316815260406020820181905260009062000e7f9083018462000cbc56fe608060405260405161072738038061072783398101604081905261002291610319565b61002e82826000610035565b5050610436565b61003e8361006b565b60008251118061004b5750805b156100665761006483836100ab60201b6100291760201c565b505b505050565b610074816100d7565b6040516001600160a01b038216907fbc7cd75a20ee27fd9adebab32041f755214dbc6bffa90cc0225b39da2e5c2d3b90600090a250565b60606100d08383604051806060016040528060278152602001610700602791396101a9565b9392505050565b6100ea8161022260201b6100551760201c565b6101515760405162461bcd60e51b815260206004820152602d60248201527f455243313936373a206e657720696d706c656d656e746174696f6e206973206e60448201526c1bdd08184818dbdb9d1c9858dd609a1b60648201526084015b60405180910390fd5b806101887f360894a13ba1a3210667c828492db98dca3e2076cc3735a920a3ca505d382bbc60001b61023160201b6100641760201c565b80546001600160a01b0319166001600160a01b039290921691909117905550565b6060600080856001600160a01b0316856040516101c691906103e7565b600060405180830381855af49150503d8060008114610201576040519150601f19603f3d011682016040523d82523d6000602084013e610206565b606091505b50909250905061021886838387610234565b9695505050505050565b6001600160a01b03163b151590565b90565b606083156102a357825160000361029c576001600160a01b0385163b61029c5760405162461bcd60e51b815260206004820152601d60248201527f416464726573733a2063616c6c20746f206e6f6e2d636f6e74726163740000006044820152606401610148565b50816102ad565b6102ad83836102b5565b949350505050565b8151156102c55781518083602001fd5b8060405162461bcd60e51b81526004016101489190610403565b634e487b7160e01b600052604160045260246000fd5b60005b838110156103105781810151838201526020016102f8565b50506000910152565b6000806040838503121561032c57600080fd5b82516001600160a01b038116811461034357600080fd5b60208401519092506001600160401b038082111561036057600080fd5b818501915085601f83011261037457600080fd5b815181811115610386576103866102df565b604051601f8201601f19908116603f011681019083821181831017156103ae576103ae6102df565b816040528281528860208487010111156103c757600080fd5b6103d88360208301602088016102f5565b80955050505050509250929050565b600082516103f98184602087016102f5565b9190910192915050565b60208152600082518060208401526104228160408501602087016102f5565b601f01601f19169190910160400192915050565b6102bb806104456000396000f3fe60806040523661001357610011610017565b005b6100115b610027610022610067565b61009f565b565b606061004e838360405180606001604052806027815260200161025f602791396100c3565b9392505050565b6001600160a01b03163b151590565b90565b600061009a7f360894a13ba1a3210667c828492db98dca3e2076cc3735a920a3ca505d382bbc546001600160a01b031690565b905090565b3660008037600080366000845af43d6000803e8080156100be573d6000f35b3d6000fd5b6060600080856001600160a01b0316856040516100e0919061020f565b600060405180830381855af49150503d806000811461011b576040519150601f19603f3d011682016040523d82523d6000602084013e610120565b606091505b50915091506101318683838761013b565b9695505050505050565b606083156101af5782516000036101a8576001600160a01b0385163b6101a85760405162461bcd60e51b815260206004820152601d60248201527f416464726573733a2063616c6c20746f206e6f6e2d636f6e747261637400000060448201526064015b60405180910390fd5b50816101b9565b6101b983836101c1565b949350505050565b8151156101d15781518083602001fd5b8060405162461bcd60e51b815260040161019f919061022b565b60005b838110156102065781810151838201526020016101ee565b50506000910152565b600082516102218184602087016101eb565b9190910192915050565b602081526000825180602084015261024a8160408501602087016101eb565b601f01601f1916919091016040019291505056fe416464726573733a206c6f772d6c6576656c2064656c65676174652063616c6c206661696c6564a2646970667358221220687bc65f742577afa32edc32468487a306093fad2f395880fa5ffa4efc5fdd6064736f6c63430008110033416464726573733a206c6f772d6c6576656c2064656c65676174652063616c6c206661696c6564a2646970667358221220ef2df23dc186011a01d41609af68ec59d5eea78217501f26564425c21073689764736f6c6343000811003360a0604052306080523480156200001557600080fd5b506200002062000026565b620000e8565b600054610100900460ff1615620000935760405162461bcd60e51b815260206004820152602760248201527f496e697469616c697a61626c653a20636f6e747261637420697320696e697469604482015266616c697a696e6760c81b606482015260840160405180910390fd5b60005460ff9081161015620000e6576000805460ff191660ff9081179091556040519081527f7f26b83ff96e1f2b6a682f133852f6798a09c465da95921460cefb38474024989060200160405180910390a15b565b60805161549662000120600039600081816109f601528181610a3601528181610abe01528181610afe0152610b7601526154966000f3fe6080604052600436106102465760003560e01c806384617cda11610139578063bc208302116100b6578063dd05cfdb1161007a578063dd05cfdb1461076e578063e097b3ff1461078e578063f2fea638146107ce578063f794062e14610802578063fbd56e4114610822578063fe0d94c11461084257600080fd5b8063bc2083021461069b578063c7f758a8146106d4578063c9c4bfca14610705578063cc63604a14610739578063da35c6641461075957600080fd5b8063a2d7d4b4116100fd578063a2d7d4b4146105e4578063a84eb99914610604578063ab5d332b14610624578063b1bb8d2614610644578063bc1615321461066457600080fd5b806384617cda1461052857806385752d0314610555578063904925831461057557806396324bd41461058d578063a230c524146105c457600080fd5b80634f1ef286116101c7578063705f2d061161018b578063705f2d061461045d578063747442d3146104945780637f02a6f0146104b45780638377c460146104d4578063839852591461050857600080fd5b80634f1ef286146103e057806352d1902d146103f35780635c60da1b1461040857806368371fca1461041d5780636a6b2d861461043d57600080fd5b8063303f43361161020e578063303f4336146103305780633628731c146103525780633659cfe6146103725780634162169f1461039257806341de6830146103c457600080fd5b806301ffc9a71461024b5780632358d5a81461028057806327f1608d146102cb57806329245f56146102ee5780632caf024b1461030e575b600080fd5b34801561025757600080fd5b5061026b610266366004612b4d565b610862565b60405190151581526020015b60405180910390f35b34801561028c57600080fd5b5061026b61029b366004612b8c565b6000828152610191602090815260408083206001600160a01b038516845260020190915290205460ff1692915050565b3480156102d757600080fd5b506102e06108de565b604051908152602001610277565b3480156102fa57600080fd5b5061026b610309366004612b8c565b6108f9565b34801561031a57600080fd5b506102e060008051602061544183398151915281565b34801561033c57600080fd5b5061035061034b366004612bd4565b61090c565b005b34801561035e57600080fd5b5061035061036d366004612c34565b610945565b34801561037e57600080fd5b5061035061038d366004612c75565b6109ec565b34801561039e57600080fd5b5060c9546001600160a01b03165b6040516001600160a01b039091168152602001610277565b3480156103d057600080fd5b5060006040516102779190612c92565b6103506103ee366004612d27565b610ab4565b3480156103ff57600080fd5b506102e0610b69565b34801561041457600080fd5b506103ac610c1d565b34801561042957600080fd5b50610350610438366004612db9565b610c2c565b34801561044957600080fd5b506102e0610458366004612e04565b610d08565b34801561046957600080fd5b506103ac610478366004612e04565b60009081526101c660205260409020546001600160a01b031690565b3480156104a057600080fd5b506103506104af366004612e2b565b610d16565b3480156104c057600080fd5b506103506104cf366004612e91565b610df4565b3480156104e057600080fd5b506102e07f37c20ba3fe5e4e1eb04b4bdb30d528f9d2d37a43a745d3976dffa671d4a3895381565b34801561051457600080fd5b50610350610523366004612f1c565b611014565b34801561053457600080fd5b50610548610543366004612e04565b611191565b6040516102779190612fd3565b34801561056157600080fd5b5061026b610570366004612fe6565b61122c565b34801561058157600080fd5b506101c3546102e09081565b34801561059957600080fd5b506103ac6105a8366004612e04565b6101c5602052600090815260409020546001600160a01b031681565b3480156105d057600080fd5b5061026b6105df366004612c75565b6112a7565b3480156105f057600080fd5b506103506105ff366004613012565b6112b2565b34801561061057600080fd5b5061035061061f366004612c34565b61137f565b34801561063057600080fd5b5061035061063f366004613012565b611443565b34801561065057600080fd5b5061026b61065f366004612fe6565b6114dc565b34801561067057600080fd5b506103ac61067f366004612e04565b6101c6602052600090815260409020546001600160a01b031681565b3480156106a757600080fd5b50610193546106bc906001600160401b031681565b6040516001600160401b039091168152602001610277565b3480156106e057600080fd5b506106f46106ef366004612e04565b611509565b6040516102779594939291906130d5565b34801561071157600080fd5b506102e07f821b6e3a557148015a918c89e5d092e878a69854a2d1a410635f771bd5a8a3f581565b34801561074557600080fd5b5061026b610754366004612e04565b6116a9565b34801561076557600080fd5b506102e06116b4565b34801561077a57600080fd5b50610350610789366004612db9565b6116c0565b34801561079a57600080fd5b50610192546107b49060ff811690610100900461ffff1682565b60408051921515835261ffff909116602083015201610277565b3480156107da57600080fd5b506102e07f15af495194f23a67c96dbcd1b4d921a563f82f4804d1b6d21da0cff6793eb62c81565b34801561080e57600080fd5b5061026b61081d366004612c75565b61178a565b34801561082e57600080fd5b506102e061083d366004613164565b6117bf565b34801561084e57600080fd5b5061035061085d366004612e04565b611a48565b60006001600160e01b031982166347c293c360e11b148061089357506001600160e01b0319821663d200f62360e01b145b806108ae57506001600160e01b03198216630bb5c60360e01b145b806108c957506001600160e01b0319821663288c314960e21b145b806108d857506108d882611a7a565b92915050565b60006108eb610160611a9f565b6001600160e01b0316905090565b60006109058383611ae7565b9392505050565b60c95460008051602061544183398151915290610938906001600160a01b031630335b84600036611b71565b61094182611c2d565b5050565b60c9546000805160206154418339815191529061096c906001600160a01b0316303361092f565b6000826109776108de565b6109819190613237565b905061ffff8111156109b55760405162496b8d60e61b815261ffff6004820152602481018290526044015b60405180910390fd5b6109bf8484611d53565b6000805160206153fa83398151915284846040516109de92919061324a565b60405180910390a150505050565b6001600160a01b037f0000000000000000000000000000000000000000000000000000000000000000163003610a345760405162461bcd60e51b81526004016109ac90613298565b7f00000000000000000000000000000000000000000000000000000000000000006001600160a01b0316610a66611e43565b6001600160a01b031614610a8c5760405162461bcd60e51b81526004016109ac906132e4565b610a9581611e5f565b60408051600080825260208201909252610ab191839190611e98565b50565b6001600160a01b037f0000000000000000000000000000000000000000000000000000000000000000163003610afc5760405162461bcd60e51b81526004016109ac90613298565b7f00000000000000000000000000000000000000000000000000000000000000006001600160a01b0316610b2e611e43565b6001600160a01b031614610b545760405162461bcd60e51b81526004016109ac906132e4565b610b5d82611e5f565b61094182826001611e98565b6000306001600160a01b037f00000000000000000000000000000000000000000000000000000000000000001614610c095760405162461bcd60e51b815260206004820152603860248201527f555550535570677261646561626c653a206d757374206e6f742062652063616c60448201527f6c6564207468726f7567682064656c656761746563616c6c000000000000000060648201526084016109ac565b506000805160206153da8339815191525b90565b6000610c27611e43565b905090565b60c9547f37c20ba3fe5e4e1eb04b4bdb30d528f9d2d37a43a745d3976dffa671d4a3895390610c65906001600160a01b0316303361092f565b60008281526101c560205260409081902054905163a84eb99960e01b81526001600160a01b039091169063a84eb99990610ca5908790879060040161324a565b600060405180830381600087803b158015610cbf57600080fd5b505af1158015610cd3573d6000803e3d6000fd5b505050507f0ba413f7646035cae0a4ee999d676078fc8a763d1a36a8ef25e4c10f67d8615d84846040516109de92919061324a565b60006108d861016083612008565b33610d218382611ae7565b610d5057604051631bf6d43960e11b8152600481018490526001600160a01b03821660248201526044016109ac565b600083815261019160209081526040808320805462ffff0019811660016101009283900461ffff9081168201169092021782556001600160a01b03861680865260028301909452828520805460ff191690911790559051909286917f7b39c92a7e1a86e846edaeff6eba715a046352c596794c2a374269c126a997689190a3828015610de05750610de0846120bb565b15610dee57610dee846120fe565b50505050565b60c9547f15af495194f23a67c96dbcd1b4d921a563f82f4804d1b6d21da0cff6793eb62c90610e2d906001600160a01b0316303361092f565b6000610e396101c35490565b9050610e4a6101c380546001019055565b6000604051610e5890612b33565b604051809103906000f080158015610e74573d6000803e3d6000fd5b50604051630d8a1cc760e21b81529091506001600160a01b03821690633628731c90610ea6908a908a9060040161324a565b600060405180830381600087803b158015610ec057600080fd5b505af1158015610ed4573d6000803e3d6000fd5b50505060008381526101c4602052604090209050610ef3898b836133aa565b5060008281526101c5602052604080822080546001600160a01b0319166001600160a01b03851617905551610f2790612b40565b604051809103906000f080158015610f43573d6000803e3d6000fd5b5060008481526101c660205260409081902080546001600160a01b0319166001600160a01b03848116918217909255915163a9059cbb60e01b81526004810192909252602482018890529192509087169063a9059cbb906044016020604051808303816000875af1158015610fbc573d6000803e3d6000fd5b505050506040513d601f19601f82011682018060405250810190610fe09190613469565b506000805160206153fa833981519152888860405161100092919061324a565b60405180910390a150505050505050505050565b600054610100900460ff16158080156110345750600054600160ff909116105b8061104e5750303b15801561104e575060005460ff166001145b6110b15760405162461bcd60e51b815260206004820152602e60248201527f496e697469616c697a61626c653a20636f6e747261637420697320616c72656160448201526d191e481a5b9a5d1a585b1a5e995960921b60648201526084016109ac565b6000805460ff1916600117905580156110d4576000805461ff0019166101001790555b6110dd85612266565b61ffff83111561110a5760405162496b8d60e61b815261ffff6004820152602481018490526044016109ac565b6111148484611d53565b6000805160206153fa833981519152848460405161113392919061324a565b60405180910390a161114482611c2d565b801561118a576000805461ff0019169055604051600181527f7f26b83ff96e1f2b6a682f133852f6798a09c465da95921460cefb38474024989060200160405180910390a15b5050505050565b6101c460205260009081526040902080546111ab90613330565b80601f01602080910402602001604051908101604052809291908181526020018280546111d790613330565b80156112245780601f106111f957610100808354040283529160200191611224565b820191906000526020600020905b81548152906001019060200180831161120757829003601f168201915b505050505081565b60008181526101c56020526040808220549051637bca031760e11b81526001600160a01b0385811660048301529091169063f794062e90602401602060405180830381865afa158015611283573d6000803e3d6000fd5b505050506040513d601f19601f820116820180604052508101906109059190613469565b60006108d88261178a565b6112bd335b8261122c565b6112fe5760405162461bcd60e51b81526020600482015260126024820152712737ba10309033b937bab81036b2b6b132b960711b60448201526064016109ac565b60008181526101c660205260409081902054905162f2a6ab60e01b81526001600160a01b0386811660048301526024820186905284811660448301529091169062f2a6ab906064015b600060405180830381600087803b15801561136157600080fd5b505af1158015611375573d6000803e3d6000fd5b5050505050505050565b60c954600080516020615441833981519152906113a6906001600160a01b0316303361092f565b6000826113b16108de565b6113bb9190613486565b6101925490915061ffff6101009091048116908216101561140857610192546040516317b10ead60e11b815261ffff808416600483015261010090920490911660248201526044016109ac565b6114128484612296565b7f0ba413f7646035cae0a4ee999d676078fc8a763d1a36a8ef25e4c10f67d8615d84846040516109de92919061324a565b61144c336112b7565b61148d5760405162461bcd60e51b81526020600482015260126024820152712737ba10309033b937bab81036b2b6b132b960711b60448201526064016109ac565b60008181526101c6602052604090819020549051635fc3ea0b60e01b81526001600160a01b03868116600483015260248201869052848116604483015290911690635fc3ea0b90606401611347565b6001600160a01b038216600090815261015f602052604081206114ff9083612008565b6001149392505050565b60408051608080820183526000808352602080840182905283850182905260609384018290528582526101918152848220805486519485018752600182015461ffff80821687526001600160401b03620100008304811688870152600160501b83048116888b0152600160901b90920490911686880152600383018054895181870281018701909a52808a5260ff841699610100909404909216979594909190859084015b82821015611692576000848152602090819020604080516060810182526003860290920180546001600160a01b031683526001810154938301939093526002830180549293929184019161160190613330565b80601f016020809104026020016040519081016040528092919081815260200182805461162d90613330565b801561167a5780601f1061164f5761010080835404028352916020019161167a565b820191906000526020600020905b81548152906001019060200180831161165d57829003601f168201915b505050505081525050815260200190600101906115ae565b505050509250806004015491505091939590929450565b60006108d8826120bb565b6000610c2761012d5490565b60c9547f37c20ba3fe5e4e1eb04b4bdb30d528f9d2d37a43a745d3976dffa671d4a38953906116f9906001600160a01b0316303361092f565b60008281526101c5602052604090819020549051630d8a1cc760e21b81526001600160a01b0390911690633628731c90611739908790879060040161324a565b600060405180830381600087803b15801561175357600080fd5b505af1158015611767573d6000803e3d6000fd5b505050506000805160206153fa83398151915284846040516109de92919061324a565b6001600160a01b038116600090815261015f602052604081206117ac90611a9f565b6001600160e01b03166001149050919050565b6101925460009060ff1680156117db57506117d93361178a565b155b1561180757335b604051633aae64d160e21b81526001600160a01b0390911660048201526024016109ac565b6000600161181443612302565b6101935491900391506001600160401b038083169116111561183657336117e2565b836001600160401b03166000036118575761185042612302565b93506118af565b61186042612302565b6001600160401b0316846001600160401b031610156118af5761188242612302565b604051631332703d60e21b81526001600160401b03918216600482015290851660248201526044016109ac565b836001600160401b0316836001600160401b031610156118f557604051631332703d60e21b81526001600160401b038086166004830152841660248201526044016109ac565b611905338c8c87878e8e8e61236e565b60008181526101916020526040902060018101805471ffffffffffffffffffffffffffffffff00001916620100006001600160401b038681169190910267ffffffffffffffff60501b191691909117600160501b898316021767ffffffffffffffff60901b198116600160901b92891692909202918217835561019254610100900461ffff1679ffffffffffffffff00000000000000000000000000000000ffff1990911661ffff199092169190911717905590925087156119c957600481018890555b60005b89811015611a2857816003018b8b838181106119ea576119ea613499565b90506020028101906119fc91906134af565b815460018101835560009283526020909220909160030201611a1e82826134cf565b50506001016119cc565b508615611a3957611a398387610d16565b50509998505050505050505050565b611a51816120bb565b611a7157604051639fefd0f160e01b8152600481018290526024016109ac565b610ab1816120fe565b60006001600160e01b0319821663368d719960e21b14806108d857506108d8826123d4565b80546000908015611ade57611ac783611ab9600184613486565b600091825260209091200190565b5464010000000090046001600160e01b0316610905565b60009392505050565b600082815261019160205260408120611aff81612424565b611b0d5760009150506108d8565b6001810154611b2c9084906201000090046001600160401b03166114dc565b611b3a5760009150506108d8565b6001600160a01b038316600090815260028201602052604090205460ff1615611b675760009150506108d8565b5060019392505050565b604051637ef7c88360e11b81526001600160a01b0387169063fdef910690611ba59088908890889088908890600401613621565b602060405180830381865afa158015611bc2573d6000803e3d6000fd5b505050506040513d601f19601f82011682018060405250810190611be69190613469565b611c2557604051630cb6f8ed60e21b81526001600160a01b038088166004830152808716602483015285166044820152606481018490526084016109ac565b505050505050565b6000611c376108de565b905061ffff8116611c4e6040840160208501613670565b61ffff161115611c905780611c696040840160208501613670565b6040516317b10ead60e11b815261ffff9283166004820152911660248201526044016109ac565b6001611ca26040840160208501613670565b61ffff161015611cbe576001611c696040840160208501613670565b81610192611ccc828261368d565b905050611cd843612302565b610193805467ffffffffffffffff19166001600160401b0392909216919091179055611d0a6040830160208401613670565b61ffff167f7d8a9a57630acbcfb28eb55b1ce0ff7b3d0dc9edea594075a8a6af35278a4cf9611d3c60208501856136d4565b604051901515815260200160405180910390a25050565b60005b81811015611e3357611d88838383818110611d7357611d73613499565b905060200201602081019061081d9190612c75565b15611dd957828282818110611d9f57611d9f613499565b9050602002016020810190611db49190612c75565b60405163c0b7477d60e01b81526001600160a01b0390911660048201526024016109ac565b611e29600161015f6000868686818110611df557611df5613499565b9050602002016020810190611e0a9190612c75565b6001600160a01b03168152602081019190915260400160002090612485565b5050600101611d56565b50610dee6101606124bb836124bf565b6000805160206153da833981519152546001600160a01b031690565b60c9547f821b6e3a557148015a918c89e5d092e878a69854a2d1a410635f771bd5a8a3f590610941906001600160a01b0316303361092f565b7f4910fdfa16fed3260ed0e7147f7cc6da11a60208b5b9406d12a635614ffd91435460ff1615611ed057611ecb836124f7565b505050565b826001600160a01b03166352d1902d6040518163ffffffff1660e01b8152600401602060405180830381865afa925050508015611f2a575060408051601f3d908101601f19168201909252611f27918101906136f1565b60015b611f8d5760405162461bcd60e51b815260206004820152602e60248201527f45524331393637557067726164653a206e657720696d706c656d656e7461746960448201526d6f6e206973206e6f74205555505360901b60648201526084016109ac565b6000805160206153da8339815191528114611ffc5760405162461bcd60e51b815260206004820152602960248201527f45524331393637557067726164653a20756e737570706f727465642070726f786044820152681a58589b195555525160ba1b60648201526084016109ac565b50611ecb838383612593565b60004382106120595760405162461bcd60e51b815260206004820181905260248201527f436865636b706f696e74733a20626c6f636b206e6f7420796574206d696e656460448201526064016109ac565b6000612064836125b8565b845490915060006120778684838561261d565b905080156120a55761208e86611ab9600184613486565b5464010000000090046001600160e01b03166120a8565b60005b6001600160e01b03169695505050505050565b6000818152610191602052604081206120d381612424565b6120e05750600092915050565b6001810154905461ffff918216610100909104909116101592915050565b600081815261019160205260409020805460ff19166001178155610dee61212d60c9546001600160a01b031690565b836101916000868152602001908152602001600020600301805480602002602001604051908101604052809291908181526020016000905b82821015612249576000848152602090819020604080516060810182526003860290920180546001600160a01b03168352600181015493830193909352600283018054929392918401916121b890613330565b80601f01602080910402602001604051908101604052809291908181526020018280546121e490613330565b80156122315780601f1061220657610100808354040283529160200191612231565b820191906000526020600020905b81548152906001019060200180831161221457829003601f168201915b50505050508152505081526020019060010190612165565b50505060008781526101916020526040902060040154905061267b565b600054610100900460ff1661228d5760405162461bcd60e51b81526004016109ac9061370a565b610ab181612731565b60005b818110156122f2576122b6838383818110611d7357611d73613499565b6122cc57828282818110611d9f57611d9f613499565b6122e8600061015f6000868686818110611df557611df5613499565b5050600101612299565b50610dee61016061277a836124bf565b60006001600160401b0382111561236a5760405162461bcd60e51b815260206004820152602660248201527f53616665436173743a2076616c756520646f65736e27742066697420696e203660448201526534206269747360d01b60648201526084016109ac565b5090565b600061237861277f565b9050886001600160a01b0316817fa6c1f8f4276dc3f243459e13b557c84e8f4e90b2e09070bad5f6909cee687c9288888c8c8a8a8a6040516123c09796959493929190613755565b60405180910390a398975050505050505050565b60006001600160e01b0319821663041de68360e41b148061240557506001600160e01b031982166352d1902d60e01b145b806108d857506301ffc9a760e01b6001600160e01b03198316146108d8565b60008061243042612302565b835490915060ff1615801561245c575060018301546001600160401b03808316600160501b9092041611155b8015610905575060018301546001600160401b03808316600160901b9092041610159392505050565b6000806124a384612495436125b8565b61249e8661279a565b612803565b6001600160e01b0391821693501690505b9250929050565b0190565b6000806124ea856124e56124d288611a9f565b6001600160e01b0316868863ffffffff16565b612485565b915091505b935093915050565b6001600160a01b0381163b6125645760405162461bcd60e51b815260206004820152602d60248201527f455243313936373a206e657720696d706c656d656e746174696f6e206973206e60448201526c1bdd08184818dbdb9d1c9858dd609a1b60648201526084016109ac565b6000805160206153da83398151915280546001600160a01b0319166001600160a01b0392909216919091179055565b61259c836129a6565b6000825111806125a95750805b15611ecb57610dee83836129e6565b600063ffffffff82111561236a5760405162461bcd60e51b815260206004820152602660248201527f53616665436173743a2076616c756520646f65736e27742066697420696e203360448201526532206269747360d01b60648201526084016109ac565b60005b818310156126735760006126348484612ada565b60008781526020902090915063ffffffff86169082015463ffffffff16111561265f5780925061266d565b61266a816001613237565b93505b50612620565b509392505050565b6040516331c6fcc960e21b81526060906000906001600160a01b0387169063c71bf324906126b190889088908890600401613864565b6000604051808303816000875af11580156126d0573d6000803e3d6000fd5b505050506040513d6000823e601f3d908101601f191682016040526126f8919081019061388d565b604051919350915085907f712ae1383f79ac853f8d882153778e0260ef8f03b504e2866e0593e04d2b291f90600090a294509492505050565b600054610100900460ff166127585760405162461bcd60e51b81526004016109ac9061370a565b60c980546001600160a01b0319166001600160a01b0392909216919091179055565b900390565b60006127896116b4565b9050610c1a61012d80546001019055565b60006001600160e01b0382111561236a5760405162461bcd60e51b815260206004820152602760248201527f53616665436173743a2076616c756520646f65736e27742066697420696e20326044820152663234206269747360c81b60648201526084016109ac565b82546000908190801561294c57600061282187611ab9600185613486565b60408051808201909152905463ffffffff8082168084526401000000009092046001600160e01b0316602084015291925090871610156128a35760405162461bcd60e51b815260206004820152601760248201527f436865636b706f696e743a20696e76616c6964206b657900000000000000000060448201526064016109ac565b805163ffffffff8088169116036128ec57846128c488611ab9600186613486565b80546001600160e01b03929092166401000000000263ffffffff90921691909117905561293c565b6040805180820190915263ffffffff80881682526001600160e01b0380881660208085019182528b54600181018d5560008d81529190912094519151909216640100000000029216919091179101555b6020015192508391506124ef9050565b50506040805180820190915263ffffffff80851682526001600160e01b0380851660208085019182528854600181018a5560008a8152918220955192519093166401000000000291909316179201919091559050816124ef565b6129af816124f7565b6040516001600160a01b038216907fbc7cd75a20ee27fd9adebab32041f755214dbc6bffa90cc0225b39da2e5c2d3b90600090a250565b60606001600160a01b0383163b612a4e5760405162461bcd60e51b815260206004820152602660248201527f416464726573733a2064656c65676174652063616c6c20746f206e6f6e2d636f6044820152651b9d1c9858dd60d21b60648201526084016109ac565b600080846001600160a01b031684604051612a699190613992565b600060405180830381855af49150503d8060008114612aa4576040519150601f19603f3d011682016040523d82523d6000602084013e612aa9565b606091505b5091509150612ad1828260405180606001604052806027815260200161541a60279139612af5565b95945050505050565b6000612ae960028484186139a4565b61090590848416613237565b60608315612b04575081610905565b6109058383815115612b195781518083602001fd5b8060405162461bcd60e51b81526004016109ac9190612fd3565b610911806139c783390190565b611102806142d883390190565b600060208284031215612b5f57600080fd5b81356001600160e01b03198116811461090557600080fd5b6001600160a01b0381168114610ab157600080fd5b60008060408385031215612b9f57600080fd5b823591506020830135612bb181612b77565b809150509250929050565b600060408284031215612bce57600080fd5b50919050565b600060408284031215612be657600080fd5b6109058383612bbc565b60008083601f840112612c0257600080fd5b5081356001600160401b03811115612c1957600080fd5b6020830191508360208260051b85010111156124b457600080fd5b60008060208385031215612c4757600080fd5b82356001600160401b03811115612c5d57600080fd5b612c6985828601612bf0565b90969095509350505050565b600060208284031215612c8757600080fd5b813561090581612b77565b6020810160038310612cb457634e487b7160e01b600052602160045260246000fd5b91905290565b634e487b7160e01b600052604160045260246000fd5b604051601f8201601f191681016001600160401b0381118282101715612cf857612cf8612cba565b604052919050565b60006001600160401b03821115612d1957612d19612cba565b50601f01601f191660200190565b60008060408385031215612d3a57600080fd5b8235612d4581612b77565b915060208301356001600160401b03811115612d6057600080fd5b8301601f81018513612d7157600080fd5b8035612d84612d7f82612d00565b612cd0565b818152866020838501011115612d9957600080fd5b816020840160208301376000602083830101528093505050509250929050565b600080600060408486031215612dce57600080fd5b83356001600160401b03811115612de457600080fd5b612df086828701612bf0565b909790965060209590950135949350505050565b600060208284031215612e1657600080fd5b5035919050565b8015158114610ab157600080fd5b60008060408385031215612e3e57600080fd5b823591506020830135612bb181612e1d565b60008083601f840112612e6257600080fd5b5081356001600160401b03811115612e7957600080fd5b6020830191508360208285010111156124b457600080fd5b60008060008060008060808789031215612eaa57600080fd5b86356001600160401b0380821115612ec157600080fd5b612ecd8a838b01612e50565b90985096506020890135915080821115612ee657600080fd5b50612ef389828a01612bf0565b9095509350506040870135612f0781612b77565b80925050606087013590509295509295509295565b60008060008060808587031215612f3257600080fd5b8435612f3d81612b77565b935060208501356001600160401b03811115612f5857600080fd5b612f6487828801612bf0565b9094509250612f7890508660408701612bbc565b905092959194509250565b60005b83811015612f9e578181015183820152602001612f86565b50506000910152565b60008151808452612fbf816020860160208601612f83565b601f01601f19169290920160200192915050565b6020815260006109056020830184612fa7565b60008060408385031215612ff957600080fd5b823561300481612b77565b946020939093013593505050565b6000806000806080858703121561302857600080fd5b843561303381612b77565b935060208501359250604085013561304a81612b77565b9396929550929360600135925050565b6000815180845260208085019450848260051b860182860160005b858110156130c8578383038952815180516001600160a01b0316845285810151868501526040908101516060918501829052906130b481860183612fa7565b9a87019a9450505090840190600101613075565b5090979650505050505050565b6000610100871515835261ffff80881660208501528087511660408501525060208601516001600160401b0380821660608601528060408901511660808601528060608901511660a086015250508060c08401526131358184018661305a565b9150508260e08301529695505050505050565b80356001600160401b038116811461315f57600080fd5b919050565b600080600080600080600080600060e08a8c03121561318257600080fd5b89356001600160401b038082111561319957600080fd5b6131a58d838e01612e50565b909b50995060208c01359150808211156131be57600080fd5b506131cb8c828d01612bf0565b90985096505060408a0135945060608a01356131e681612e1d565b935060808a01356131f681612e1d565b925061320460a08b01613148565b915061321260c08b01613148565b90509295985092959850929598565b634e487b7160e01b600052601160045260246000fd5b808201808211156108d8576108d8613221565b60208082528181018390526000908460408401835b8681101561328d57823561327281612b77565b6001600160a01b03168252918301919083019060010161325f565b509695505050505050565b6020808252602c908201527f46756e6374696f6e206d7573742062652063616c6c6564207468726f7567682060408201526b19195b1959d85d1958d85b1b60a21b606082015260800190565b6020808252602c908201527f46756e6374696f6e206d7573742062652063616c6c6564207468726f7567682060408201526b6163746976652070726f787960a01b606082015260800190565b600181811c9082168061334457607f821691505b602082108103612bce57634e487b7160e01b600052602260045260246000fd5b601f821115611ecb57600081815260208120601f850160051c8101602086101561338b5750805b601f850160051c820191505b81811015611c2557828155600101613397565b6001600160401b038311156133c1576133c1612cba565b6133d5836133cf8354613330565b83613364565b6000601f84116001811461340957600085156133f15750838201355b600019600387901b1c1916600186901b17835561118a565b600083815260209020601f19861690835b8281101561343a578685013582556020948501946001909201910161341a565b50868210156134575760001960f88860031b161c19848701351681555b505060018560011b0183555050505050565b60006020828403121561347b57600080fd5b815161090581612e1d565b818103818111156108d8576108d8613221565b634e487b7160e01b600052603260045260246000fd5b60008235605e198336030181126134c557600080fd5b9190910192915050565b81356134da81612b77565b81546001600160a01b0319166001600160a01b03919091161781556020828101356001838101919091559060028301604085013536869003601e1901811261352157600080fd5b850180356001600160401b0381111561353957600080fd5b803603848301131561354a57600080fd5b61355e816135588554613330565b85613364565b6000601f821160018114613594576000831561357c57508382018601355b600019600385901b1c1916600184901b1785556135ed565b600085815260209020601f19841690835b828110156135c4578685018901358255938801939089019088016135a5565b50848210156135e35760001960f88660031b161c198885880101351681555b50508683881b0185555b505050505050505050565b81835281816020850137506000828201602090810191909152601f909101601f19169091010190565b6001600160a01b038681168252851660208201526040810184905260806060820181905260009061365590830184866135f8565b979650505050505050565b61ffff81168114610ab157600080fd5b60006020828403121561368257600080fd5b813561090581613660565b813561369881612e1d565b815460ff19811691151560ff16918217835560208401356136b881613660565b62ffff008160081b168362ffffff198416171784555050505050565b6000602082840312156136e657600080fd5b813561090581612e1d565b60006020828403121561370357600080fd5b5051919050565b6020808252602b908201527f496e697469616c697a61626c653a20636f6e7472616374206973206e6f74206960408201526a6e697469616c697a696e6760a81b606082015260800190565b60006001600160401b03808a1683526020818a1681850152604060a08186015261378360a086018a8c6135f8565b606086820381880152818983528483019050848a60051b8401018b60005b8c81101561384657858303601f190184528135368f9003605e190181126137c757600080fd5b8e0180356137d481612b77565b6001600160a01b0316845280890135898501528781013536829003601e190181126137fe57600080fd5b0188810190358a81111561381157600080fd5b80360382131561382057600080fd5b868986015261383287860182846135f8565b958a019594505050908701906001016137a1565b50508097505050505050505082608083015298975050505050505050565b83815260606020820152600061387d606083018561305a565b9050826040830152949350505050565b60008060408084860312156138a157600080fd5b83516001600160401b03808211156138b857600080fd5b818601915086601f8301126138cc57600080fd5b81516020828211156138e0576138e0612cba565b8160051b6138ef828201612cd0565b928352848101820192828101908b85111561390957600080fd5b83870192505b8483101561397e578251868111156139275760008081fd5b8701603f81018d136139395760008081fd5b84810151613949612d7f82612d00565b8181528e8b83850101111561395e5760008081fd5b61396d828883018d8601612f83565b84525050918301919083019061390f565b9990920151989a9899505050505050505050565b600082516134c5818460208701612f83565b6000826139c157634e487b7160e01b600052601260045260246000fd5b50049056fe608060405234801561001057600080fd5b506108f1806100206000396000f3fe608060405234801561001057600080fd5b50600436106100625760003560e01c806327f1608d146100675780633628731c146100825780636a6b2d8614610097578063a84eb999146100aa578063b1bb8d26146100bd578063f794062e146100e0575b600080fd5b61006f6100f3565b6040519081526020015b60405180910390f35b610095610090366004610758565b61010d565b005b61006f6100a53660046107cd565b61011b565b6100956100b8366004610758565b61012e565b6100d06100cb366004610802565b610138565b6040519015158152602001610079565b6100d06100ee36600461082c565b610164565b60006100ff6001610198565b6001600160e01b0316905090565b61011782826101e1565b5050565b60006101286001836102d9565b92915050565b610117828261038c565b6001600160a01b038216600090815260208190526040812061015a90836102d9565b6001149392505050565b6001600160a01b038116600090815260208190526040812061018590610198565b6001600160e01b03166001149050919050565b805460009080156101d7576101c0836101b260018461085d565b600091825260209091200190565b5464010000000090046001600160e01b03166101da565b60005b9392505050565b60005b818110156102c45761021683838381811061020157610201610870565b90506020020160208101906100ee919061082c565b1561026c5782828281811061022d5761022d610870565b9050602002016020810190610242919061082c565b60405163c0b7477d60e01b81526001600160a01b0390911660048201526024015b60405180910390fd5b6102ba600160008086868681811061028657610286610870565b905060200201602081019061029b919061082c565b6001600160a01b031681526020810191909152604001600020906103f5565b50506001016101e4565b506102d360016104298361042d565b50505050565b600043821061032a5760405162461bcd60e51b815260206004820181905260248201527f436865636b706f696e74733a20626c6f636b206e6f7420796574206d696e65646044820152606401610263565b600061033583610465565b84549091506000610348868483856104ce565b905080156103765761035f866101b260018461085d565b5464010000000090046001600160e01b0316610379565b60005b6001600160e01b03169695505050505050565b60005b818110156103e6576103ac83838381811061020157610201610870565b6103c25782828281811061022d5761022d610870565b6103dc600080600086868681811061028657610286610870565b505060010161038f565b506102d3600161052c8361042d565b6000806104138461040543610465565b61040e86610531565b61059a565b6001600160e01b03918216969116945092505050565b0190565b6000806104588561045361044088610198565b6001600160e01b0316868863ffffffff16565b6103f5565b915091505b935093915050565b600063ffffffff8211156104ca5760405162461bcd60e51b815260206004820152602660248201527f53616665436173743a2076616c756520646f65736e27742066697420696e203360448201526532206269747360d01b6064820152608401610263565b5090565b60005b818310156105245760006104e5848461073d565b60008781526020902090915063ffffffff86169082015463ffffffff1611156105105780925061051e565b61051b816001610886565b93505b506104d1565b509392505050565b900390565b60006001600160e01b038211156104ca5760405162461bcd60e51b815260206004820152602760248201527f53616665436173743a2076616c756520646f65736e27742066697420696e20326044820152663234206269747360c81b6064820152608401610263565b8254600090819080156106e35760006105b8876101b260018561085d565b60408051808201909152905463ffffffff8082168084526401000000009092046001600160e01b03166020840152919250908716101561063a5760405162461bcd60e51b815260206004820152601760248201527f436865636b706f696e743a20696e76616c6964206b65790000000000000000006044820152606401610263565b805163ffffffff808816911603610683578461065b886101b260018661085d565b80546001600160e01b03929092166401000000000263ffffffff9092169190911790556106d3565b6040805180820190915263ffffffff80881682526001600160e01b0380881660208085019182528b54600181018d5560008d81529190912094519151909216640100000000029216919091179101555b60200151925083915061045d9050565b50506040805180820190915263ffffffff80851682526001600160e01b0380851660208085019182528854600181018a5560008a81529182209551925190931664010000000002919093161792019190915590508161045d565b600061074c6002848418610899565b6101da90848416610886565b6000806020838503121561076b57600080fd5b823567ffffffffffffffff8082111561078357600080fd5b818501915085601f83011261079757600080fd5b8135818111156107a657600080fd5b8660208260051b85010111156107bb57600080fd5b60209290920196919550909350505050565b6000602082840312156107df57600080fd5b5035919050565b80356001600160a01b03811681146107fd57600080fd5b919050565b6000806040838503121561081557600080fd5b61081e836107e6565b946020939093013593505050565b60006020828403121561083e57600080fd5b6101da826107e6565b634e487b7160e01b600052601160045260246000fd5b8181038181111561012857610128610847565b634e487b7160e01b600052603260045260246000fd5b8082018082111561012857610128610847565b6000826108b657634e487b7160e01b600052601260045260246000fd5b50049056fea26469706673582212203625a0d1311d0dd6e9844a8c307af4fd456abe1f98d9f670d41fcb6d8f0ac61e64736f6c63430008110033608060405234801561001057600080fd5b506110e2806100206000396000f3fe608060405234801561001057600080fd5b50600436106100b35760003560e01c80635fc3ea0b116100715780635fc3ea0b1461018a578063c58e17391461019d578063c9dbc2a4146101c4578063d68bad2c146101d7578063d96054c4146101ea578063e978afe5146101fd57600080fd5b8062f2a6ab146100b8578063061d12f6146100cd57806309e56b1414610107578063150b7a021461011c57806322844d04146101545780632675fdd014610167575b600080fd5b6100cb6100c6366004610b3d565b610210565b005b6100f47f8fc7781c534763227700600f55624ea269bd89893bdf827726df7a81aceded4181565b6040519081526020015b60405180910390f35b6100f460008051602061108d83398151915281565b61013b61012a366004610b7f565b630a85bd0160e11b95945050505050565b6040516001600160e01b031990911681526020016100fe565b6100cb610162366004610c1e565b61027d565b61017a610175366004610ced565b61036e565b60405190151581526020016100fe565b6100cb610198366004610b3d565b6103b9565b6100f47fa0a3fbf9e99a38a422bdc3eff1c82b7ff522b0214058ff322d6a9bb12120c15581565b6100cb6101d2366004610db1565b610432565b6100cb6101e5366004610e04565b610456565b6100cb6101f8366004610e04565b610479565b6100cb61020b366004610e45565b61049c565b604051632142170760e11b81523060048201526001600160a01b038281166024830152604482018490528416906342842e0e90606401600060405180830381600087803b15801561026057600080fd5b505af1158015610274573d6000803e3d6000fd5b50505050505050565b60008051602061108d83398151915261029581610591565b60005b828110156103675760008484838181106102b4576102b4610eba565b9050606002018036038101906102ca9190610ee4565b90506000815160028111156102e1576102e1610f4d565b036102fe576102f98682602001518360400151610608565b61035e565b60018151600281111561031357610313610f4d565b0361032b576102f986826020015183604001516106e8565b60028151600281111561034057610340610f4d565b0361035e5760405163d4d3bef760e01b815260040160405180910390fd5b50600101610298565b5050505050565b600061037c8585858561077c565b806103955750610395856001600160a01b03858561077c565b806103ae57506103ae6001600160a01b0385858561077c565b90505b949350505050565b60405163a9059cbb60e01b81526001600160a01b0382811660048301526024820184905284169063a9059cbb906044016020604051808303816000875af1158015610408573d6000803e3d6000fd5b505050506040513d601f19601f8201168201806040525081019061042c9190610f63565b50505050565b60008051602061108d83398151915261044a81610591565b61036785858585610864565b60008051602061108d83398151915261046e81610591565b61042c848484610608565b60008051602061108d83398151915261049181610591565b61042c8484846106e8565b60008051602061108d8339815191526104b481610591565b60005b8281101561042c5760008484838181106104d3576104d3610eba565b905060a002018036038101906104e99190610f8c565b905060008151600281111561050057610500610f4d565b036105215761051c816020015182604001518360800151610608565b610588565b60018151600281111561053657610536610f4d565b036105525761051c8160200151826040015183608001516106e8565b60028151600281111561056757610567610f4d565b03610588576105888160200151826040015183608001518460600151610864565b506001016104b7565b6105d43033836000368080601f01602080910402602001604051908101604052809392919081815260200183838082843760009201919091525061036e92505050565b61060557604051631e09743f60e01b8152306004820152336024820152604481018290526064015b60405180910390fd5b50565b6001600160a01b03838116148061062757506001600160a01b03828116145b15610645576040516324159e5b60e01b815260040160405180910390fd5b6000610652848484610ac3565b6000818152600160205260409020549091506001600160a01b0316806103675760008281526001602090815260409182902080546001600160a01b031916600290811790915582516001600160a01b0389811682529281019190915290861691339186917f0f579ad49235a8c1fd9041427e7067b1eb10926bbed380bf6fabc73e0e807644910160405180910390a45050505050565b60006106f5848484610ac3565b6000818152600160205260409020549091506001600160a01b03161561042c5760008181526001602090815260409182902080546001600160a01b031916905590516001600160a01b038681168252851691339185917f3ca48185ec3f6e47e24db18b13f1c65b1ce05da1659f9c1c4fe717dda5f67524910160405180910390a450505050565b6000806001600061078e888888610ac3565b81526020810191909152604001600020546001600160a01b03169050806107b95760009150506103b1565b6001196001600160a01b038216016107d55760019150506103b1565b6040516302675fdd60e41b81526001600160a01b03821690632675fdd09061080790899089908990899060040161101b565b602060405180830381865afa925050508015610840575060408051601f3d908101601f1916820190925261083d91810190610f63565b60015b15610858578015610856576001925050506103b1565b505b50600095945050505050565b806001600160a01b0381163b6108985760405163241acd7b60e11b81526001600160a01b03831660048201526024016105fc565b6040516301ffc9a760e01b81526302675fdd60e41b60048201526001600160a01b038216906301ffc9a790602401602060405180830381865afa1580156108e3573d6000803e3d6000fd5b505050506040513d601f19601f820116820180604052508101906109079190610f63565b61092f57604051633a05b88b60e11b81526001600160a01b03831660048201526024016105fc565b6001600160a01b0385811614801561094f57506001600160a01b03848116145b1561096d576040516385f1ba9960e01b815260040160405180910390fd5b6001600160a01b03858116148061098c57506001600160a01b03848116145b156109c95760008051602061108d8339815191528314806109ab575060005b156109c9576040516324159e5b60e01b815260040160405180910390fd5b60006109d6868686610ac3565b6000818152600160205260409020549091506001600160a01b031680610a675760008281526001602090815260409182902080546001600160a01b0319166001600160a01b0387811691821790925583518b8316815292830152881691339188917f0f579ad49235a8c1fd9041427e7067b1eb10926bbed380bf6fabc73e0e807644910160405180910390a4610274565b826001600160a01b0316816001600160a01b031614610274576040516305cc3c4f60e11b81526001600160a01b03808916600483015280881660248301526044820187905280831660648301528416608482015260a4016105fc565b604051692822a926a4a9a9a4a7a760b11b60208201526bffffffffffffffffffffffff19606084811b8216602a84015285901b16603e820152605281018290526000906072016040516020818303038152906040528051906020012090509392505050565b6001600160a01b038116811461060557600080fd5b600080600060608486031215610b5257600080fd5b8335610b5d81610b28565b9250602084013591506040840135610b7481610b28565b809150509250925092565b600080600080600060808688031215610b9757600080fd5b8535610ba281610b28565b94506020860135610bb281610b28565b935060408601359250606086013567ffffffffffffffff80821115610bd657600080fd5b818801915088601f830112610bea57600080fd5b813581811115610bf957600080fd5b896020828501011115610c0b57600080fd5b9699959850939650602001949392505050565b600080600060408486031215610c3357600080fd5b8335610c3e81610b28565b9250602084013567ffffffffffffffff80821115610c5b57600080fd5b818601915086601f830112610c6f57600080fd5b813581811115610c7e57600080fd5b876020606083028501011115610c9357600080fd5b6020830194508093505050509250925092565b634e487b7160e01b600052604160045260246000fd5b604051601f8201601f1916810167ffffffffffffffff81118282101715610ce557610ce5610ca6565b604052919050565b60008060008060808587031215610d0357600080fd5b8435610d0e81610b28565b9350602085810135610d1f81610b28565b935060408601359250606086013567ffffffffffffffff80821115610d4357600080fd5b818801915088601f830112610d5757600080fd5b813581811115610d6957610d69610ca6565b610d7b601f8201601f19168501610cbc565b91508082528984828501011115610d9157600080fd5b808484018584013760008482840101525080935050505092959194509250565b60008060008060808587031215610dc757600080fd5b8435610dd281610b28565b93506020850135610de281610b28565b9250604085013591506060850135610df981610b28565b939692955090935050565b600080600060608486031215610e1957600080fd5b8335610e2481610b28565b92506020840135610e3481610b28565b929592945050506040919091013590565b60008060208385031215610e5857600080fd5b823567ffffffffffffffff80821115610e7057600080fd5b818501915085601f830112610e8457600080fd5b813581811115610e9357600080fd5b86602060a083028501011115610ea857600080fd5b60209290920196919550909350505050565b634e487b7160e01b600052603260045260246000fd5b803560038110610edf57600080fd5b919050565b600060608284031215610ef657600080fd5b6040516060810181811067ffffffffffffffff82111715610f1957610f19610ca6565b604052610f2583610ed0565b81526020830135610f3581610b28565b60208201526040928301359281019290925250919050565b634e487b7160e01b600052602160045260246000fd5b600060208284031215610f7557600080fd5b81518015158114610f8557600080fd5b9392505050565b600060a08284031215610f9e57600080fd5b60405160a0810181811067ffffffffffffffff82111715610fc157610fc1610ca6565b604052610fcd83610ed0565b81526020830135610fdd81610b28565b60208201526040830135610ff081610b28565b6040820152606083013561100381610b28565b60608201526080928301359281019290925250919050565b600060018060a01b038087168352602081871681850152856040850152608060608501528451915081608085015260005b828110156110685785810182015185820160a00152810161104c565b5050600060a0828501015260a0601f19601f8301168401019150509594505050505056fe815fe80e4b37c8582a3b773d1d7071f983eacfd56b5965db654f3087c25ada33a2646970667358221220531c14ee31ce1f6fce97ecb0a653bce9f254e42e7b74043efe646d23a60c2c1064736f6c63430008110033360894a13ba1a3210667c828492db98dca3e2076cc3735a920a3ca505d382bbc11ba20e083ffba533caf1d501ce171aa2acdc05a5601e4e473e449460b0718d8416464726573733a206c6f772d6c6576656c2064656c65676174652063616c6c206661696c6564b1750e46d35a0069c8465b8643e7838d2149a842a2db8ee233d9835590040cada264697066735822122009b3d729e7357159b48edbe3c4fb333d4ed0dc331db2fd98819835f0989e67b664736f6c63430008110033",
  "devdoc": {
    "author": "Lemonade Social - 2022-2023",
    "kind": "dev",
    "methods": {
      "implementation()": {
        "details": "The implementation can be instantiated via the `new` keyword, cloned via the minimal clones pattern (see [ERC-1167](https://eips.ethereum.org/EIPS/eip-1167)), or proxied via the UUPS pattern (see [ERC-1822](https://eips.ethereum.org/EIPS/eip-1822)).",
        "returns": {
          "_0": "The address of the plugin implementation contract."
        }
      },
      "prepareInstallation(address,bytes)": {
        "params": {
          "_dao": "The address of the installing DAO.",
          "_data": "The bytes-encoded data containing the input parameters for the installation as specified in the plugin's build metadata JSON file."
        },
        "returns": {
          "plugin": "The address of the `Plugin` contract being prepared for installation.",
          "preparedSetupData": "The deployed plugin's relevant data which consists of helpers and permissions."
        }
      },
      "prepareUninstallation(address,(address,address[],bytes))": {
        "params": {
          "_dao": "The address of the uninstalling DAO.",
          "_payload": "The relevant data necessary for the `prepareUninstallation`. See above."
        },
        "returns": {
          "permissions": "The array of multi-targeted permission operations to be applied by the `PluginSetupProcessor` to the uninstalling DAO."
        }
      },
      "prepareUpdate(address,uint16,(address,address[],bytes))": {
        "params": {
          "_currentBuild": "The build number of the plugin to update from.",
          "_dao": "The address of the updating DAO.",
          "_payload": "The relevant data necessary for the `prepareUpdate`. See above."
        },
        "returns": {
          "initData": "The initialization data to be passed to upgradeable contracts when the update is applied in the `PluginSetupProcessor`.",
          "preparedSetupData": "The deployed plugin's relevant data which consists of helpers and permissions."
        }
      },
      "supportsInterface(bytes4)": {
        "params": {
          "_interfaceId": "The ID of the interface."
        },
        "returns": {
          "_0": "Returns `true` if the interface is supported."
        }
      }
    },
    "title": "GroupMultisigSetup",
    "version": 1
  },
  "userdoc": {
    "kind": "user",
    "methods": {
      "constructor": {
        "notice": "The contract constructor, that deployes the `GroupMultisig` plugin logic contract."
      },
      "implementation()": {
        "notice": "Returns the plugin implementation address."
      },
      "prepareInstallation(address,bytes)": {
        "notice": "Prepares the installation of a plugin."
      },
      "prepareUninstallation(address,(address,address[],bytes))": {
        "notice": "Prepares the uninstallation of a plugin."
      },
      "prepareUpdate(address,uint16,(address,address[],bytes))": {
        "notice": "Prepares the update of a plugin."
      },
      "supportsInterface(bytes4)": {
        "notice": "Checks if this or the parent contract supports an interface by its ID."
      }
    },
    "notice": "The setup contract of the `GroupMultisig` plugin.",
    "version": 1
  },
  "storageLayout": {
    "storage": [],
    "types": null
  }
}