{
  "_format": "hh-sol-artifact-1",
  "contractName": "ParentChildPlugin",
  "sourceName": "contracts/ParentChildPlugin.sol",
  "abi": [
    {
      "inputs": [
        {
          "internalType": "contract IDAO",
          "name": "_dao",
          "type": "address"
        },
        {
          "internalType": "address[]",
          "name": "_plugins",
          "type": "address[]"
        }
      ],
      "stateMutability": "nonpayable",
      "type": "constructor"
    },
    {
      "inputs": [],
      "name": "CannotUnsetParent",
      "type": "error"
    },
    {
      "inputs": [
        {
          "internalType": "address",
          "name": "dao",
          "type": "address"
        },
        {
          "internalType": "address",
          "name": "where",
          "type": "address"
        },
        {
          "internalType": "address",
          "name": "who",
          "type": "address"
        },
        {
          "internalType": "bytes32",
          "name": "permissionId",
          "type": "bytes32"
        }
      ],
      "name": "DaoUnauthorized",
      "type": "error"
    },
    {
      "inputs": [
        {
          "internalType": "address",
          "name": "parent",
          "type": "address"
        }
      ],
      "name": "ParentAlreadyAttached",
      "type": "error"
    },
    {
      "inputs": [
        {
          "internalType": "address",
          "name": "parent",
          "type": "address"
        }
      ],
      "name": "ParentNotDetached",
      "type": "error"
    },
    {
      "inputs": [],
      "name": "PluginDeactivated",
      "type": "error"
    },
    {
      "anonymous": false,
      "inputs": [],
      "name": "Deactivated",
      "type": "event"
    },
    {
      "anonymous": false,
      "inputs": [
        {
          "indexed": false,
          "internalType": "address",
          "name": "parent",
          "type": "address"
        },
        {
          "indexed": false,
          "internalType": "address",
          "name": "child",
          "type": "address"
        },
        {
          "indexed": false,
          "internalType": "bool",
          "name": "hardLink",
          "type": "bool"
        }
      ],
      "name": "ParentSet",
      "type": "event"
    },
    {
      "anonymous": false,
      "inputs": [
        {
          "indexed": false,
          "internalType": "address",
          "name": "parent",
          "type": "address"
        },
        {
          "indexed": false,
          "internalType": "address",
          "name": "child",
          "type": "address"
        }
      ],
      "name": "ParentUnset",
      "type": "event"
    },
    {
      "anonymous": false,
      "inputs": [
        {
          "indexed": false,
          "internalType": "bytes32",
          "name": "proposalId",
          "type": "bytes32"
        },
        {
          "indexed": false,
          "internalType": "bool",
          "name": "rejected",
          "type": "bool"
        }
      ],
      "name": "ProposalIntervened",
      "type": "event"
    },
    {
      "inputs": [],
      "name": "DEACTIVATE_PERMISSION_ID",
      "outputs": [
        {
          "internalType": "bytes32",
          "name": "",
          "type": "bytes32"
        }
      ],
      "stateMutability": "view",
      "type": "function"
    },
    {
      "inputs": [],
      "name": "INTERVENE_PROPOSAL_PERMISSION_ID",
      "outputs": [
        {
          "internalType": "bytes32",
          "name": "",
          "type": "bytes32"
        }
      ],
      "stateMutability": "view",
      "type": "function"
    },
    {
      "inputs": [],
      "name": "SET_PARENT_PERMISSION_ID",
      "outputs": [
        {
          "internalType": "bytes32",
          "name": "",
          "type": "bytes32"
        }
      ],
      "stateMutability": "view",
      "type": "function"
    },
    {
      "inputs": [],
      "name": "dao",
      "outputs": [
        {
          "internalType": "contract IDAO",
          "name": "",
          "type": "address"
        }
      ],
      "stateMutability": "view",
      "type": "function"
    },
    {
      "inputs": [],
      "name": "deactivate",
      "outputs": [],
      "stateMutability": "nonpayable",
      "type": "function"
    },
    {
      "inputs": [],
      "name": "deactivated",
      "outputs": [
        {
          "internalType": "bool",
          "name": "",
          "type": "bool"
        }
      ],
      "stateMutability": "view",
      "type": "function"
    },
    {
      "inputs": [],
      "name": "getPlugins",
      "outputs": [
        {
          "internalType": "address[]",
          "name": "_plugins",
          "type": "address[]"
        }
      ],
      "stateMutability": "view",
      "type": "function"
    },
    {
      "inputs": [],
      "name": "hardLink",
      "outputs": [
        {
          "internalType": "bool",
          "name": "",
          "type": "bool"
        }
      ],
      "stateMutability": "view",
      "type": "function"
    },
    {
      "inputs": [
        {
          "internalType": "bytes32",
          "name": "_proposalId",
          "type": "bytes32"
        },
        {
          "internalType": "bool",
          "name": "_rejected",
          "type": "bool"
        }
      ],
      "name": "intervene",
      "outputs": [],
      "stateMutability": "nonpayable",
      "type": "function"
    },
    {
      "inputs": [],
      "name": "parent",
      "outputs": [
        {
          "internalType": "address",
          "name": "",
          "type": "address"
        }
      ],
      "stateMutability": "view",
      "type": "function"
    },
    {
      "inputs": [],
      "name": "pluginType",
      "outputs": [
        {
          "internalType": "enum IPlugin.PluginType",
          "name": "",
          "type": "uint8"
        }
      ],
      "stateMutability": "pure",
      "type": "function"
    },
    {
      "inputs": [
        {
          "internalType": "bytes32",
          "name": "",
          "type": "bytes32"
        }
      ],
      "name": "rejections",
      "outputs": [
        {
          "internalType": "bool",
          "name": "",
          "type": "bool"
        }
      ],
      "stateMutability": "view",
      "type": "function"
    },
    {
      "inputs": [
        {
          "internalType": "address",
          "name": "_newParent",
          "type": "address"
        },
        {
          "internalType": "bool",
          "name": "_hardLink",
          "type": "bool"
        }
      ],
      "name": "setParent",
      "outputs": [],
      "stateMutability": "nonpayable",
      "type": "function"
    },
    {
      "inputs": [
        {
          "internalType": "bytes4",
          "name": "_interfaceId",
          "type": "bytes4"
        }
      ],
      "name": "supportsInterface",
      "outputs": [
        {
          "internalType": "bool",
          "name": "",
          "type": "bool"
        }
      ],
      "stateMutability": "view",
      "type": "function"
    }
  ],
  "bytecode": "0x60a06040523480156200001157600080fd5b50604051620022ea380380620022ea83398181016040528101906200003791906200034a565b81808073ffffffffffffffffffffffffffffffffffffffff1660808173ffffffffffffffffffffffffffffffffffffffff1681525050505060008151905060005b818110156200010d576002838281518110620000995762000098620003b0565b5b60200260200101519080600181540180825580915050600190039060005260206000200160009091909190916101000a81548173ffffffffffffffffffffffffffffffffffffffff021916908373ffffffffffffffffffffffffffffffffffffffff16021790555080600101905062000078565b50505050620003df565b6000604051905090565b600080fd5b600080fd5b600073ffffffffffffffffffffffffffffffffffffffff82169050919050565b600062000158826200012b565b9050919050565b60006200016c826200014b565b9050919050565b6200017e816200015f565b81146200018a57600080fd5b50565b6000815190506200019e8162000173565b92915050565b600080fd5b6000601f19601f8301169050919050565b7f4e487b7100000000000000000000000000000000000000000000000000000000600052604160045260246000fd5b620001f482620001a9565b810181811067ffffffffffffffff82111715620002165762000215620001ba565b5b80604052505050565b60006200022b62000117565b9050620002398282620001e9565b919050565b600067ffffffffffffffff8211156200025c576200025b620001ba565b5b602082029050602081019050919050565b600080fd5b6200027d816200014b565b81146200028957600080fd5b50565b6000815190506200029d8162000272565b92915050565b6000620002ba620002b4846200023e565b6200021f565b90508083825260208201905060208402830185811115620002e057620002df6200026d565b5b835b818110156200030d5780620002f888826200028c565b845260208401935050602081019050620002e2565b5050509392505050565b600082601f8301126200032f576200032e620001a4565b5b815162000341848260208601620002a3565b91505092915050565b6000806040838503121562000364576200036362000121565b5b600062000374858286016200018d565b925050602083015167ffffffffffffffff81111562000398576200039762000126565b5b620003a68582860162000317565b9150509250929050565b7f4e487b7100000000000000000000000000000000000000000000000000000000600052603260045260246000fd5b608051611eda620004106000396000818161033d015281816103d7015281816109c00152610c660152611eda6000f3fe608060405234801561001057600080fd5b50600436106100ea5760003560e01c806385cf07cd1161008c578063b203664c11610066578063b203664c14610229578063c19a6ab214610247578063d82891eb14610265578063d8dd868714610283576100ea565b806385cf07cd146101d1578063a2d869b2146101ef578063ae9cf3ad1461020d576100ea565b806341de6830116100c857806341de68301461016d57806351b42b001461018b578063556ed30e1461019557806360f96a8f146101b3576100ea565b806301ffc9a7146100ef5780630ae3d7f81461011f5780634162169f1461014f575b600080fd5b610109600480360381019061010491906116a8565b61029f565b60405161011691906116f0565b60405180910390f35b61013960048036038101906101349190611741565b610319565b60405161014691906116f0565b60405180910390f35b610157610339565b60405161016491906117ed565b60405180910390f35b610175610361565b604051610182919061187f565b60405180910390f35b61019361036a565b005b61019d6107fa565b6040516101aa91906116f0565b60405180910390f35b6101bb61080d565b6040516101c891906118bb565b60405180910390f35b6101d9610831565b6040516101e691906118e5565b60405180910390f35b6101f7610855565b60405161020491906119be565b60405180910390f35b61022760048036038101906102229190611a38565b610953565b005b610231610b9e565b60405161023e91906118e5565b60405180910390f35b61024f610bc2565b60405161025c91906116f0565b60405180910390f35b61026d610bd5565b60405161027a91906118e5565b60405180910390f35b61029d60048036038101906102989190611a78565b610bf9565b005b60007f41de6830000000000000000000000000000000000000000000000000000000007bffffffffffffffffffffffffffffffffffffffffffffffffffffffff1916827bffffffffffffffffffffffffffffffffffffffffffffffffffffffff19161480610312575061031182610d05565b5b9050919050565b60016020528060005260406000206000915054906101000a900460ff1681565b60007f0000000000000000000000000000000000000000000000000000000000000000905090565b60006002905090565b600060159054906101000a900460ff16156103b1576040517fe123821200000000000000000000000000000000000000000000000000000000815260040160405180910390fd5b7f0f71b908416e3720321aa24174305eb66a9e373b8c9c4908782afc4a863fb14861040d7f0000000000000000000000000000000000000000000000000000000000000000306103ff610d6f565b84610408610d77565b610d84565b600073ffffffffffffffffffffffffffffffffffffffff1660008054906101000a900473ffffffffffffffffffffffffffffffffffffffff1673ffffffffffffffffffffffffffffffffffffffff16146104be5760008054906101000a900473ffffffffffffffffffffffffffffffffffffffff166040517fc1a75e3d0000000000000000000000000000000000000000000000000000000081526004016104b591906118bb565b60405180910390fd5b6001600060156101000a81548160ff021916908315150217905550600030905060006104e8610339565b905060008190506000600267ffffffffffffffff81111561050c5761050b611ab8565b5b60405190808252806020026020018201604052801561054557816020015b6105326115c5565b81526020019060019003908161052a5790505b5090506040518060a001604052806000600281111561056757610566611808565b5b81526020018473ffffffffffffffffffffffffffffffffffffffff1681526020018473ffffffffffffffffffffffffffffffffffffffff168152602001600073ffffffffffffffffffffffffffffffffffffffff1681526020018373ffffffffffffffffffffffffffffffffffffffff166309e56b146040518163ffffffff1660e01b8152600401602060405180830381865afa15801561060c573d6000803e3d6000fd5b505050506040513d601f19601f820116820180604052508101906106309190611afc565b8152508160008151811061064757610646611b29565b5b60200260200101819052506040518060a001604052806001600281111561067157610670611808565b5b81526020018473ffffffffffffffffffffffffffffffffffffffff1681526020018573ffffffffffffffffffffffffffffffffffffffff168152602001600073ffffffffffffffffffffffffffffffffffffffff1681526020018373ffffffffffffffffffffffffffffffffffffffff166309e56b146040518163ffffffff1660e01b8152600401602060405180830381865afa158015610716573d6000803e3d6000fd5b505050506040513d601f19601f8201168201806040525081019061073a9190611afc565b8152508160018151811061075157610750611b29565b5b60200260200101819052508173ffffffffffffffffffffffffffffffffffffffff1663e978afe5826040518263ffffffff1660e01b81526004016107959190611cc6565b600060405180830381600087803b1580156107af57600080fd5b505af11580156107c3573d6000803e3d6000fd5b505050507f1142a68cc39970640eb3524e77b91f78be21abc64f20f5919387eb46699bb77260405160405180910390a15050505050565b600060159054906101000a900460ff1681565b60008054906101000a900473ffffffffffffffffffffffffffffffffffffffff1681565b7f0f71b908416e3720321aa24174305eb66a9e373b8c9c4908782afc4a863fb14881565b6060600060028054905090508067ffffffffffffffff81111561087b5761087a611ab8565b5b6040519080825280602002602001820160405280156108a95781602001602082028036833780820191505090505b50915060005b8181101561094e57600281815481106108cb576108ca611b29565b5b9060005260206000200160009054906101000a900473ffffffffffffffffffffffffffffffffffffffff1683828151811061090957610908611b29565b5b602002602001019073ffffffffffffffffffffffffffffffffffffffff16908173ffffffffffffffffffffffffffffffffffffffff16815250508060010190506108af565b505090565b600060159054906101000a900460ff161561099a576040517fe123821200000000000000000000000000000000000000000000000000000000815260040160405180910390fd5b7fcf58f804f2b6b37a8053db95445338e0b55b7cf8a7b60aad3e5a57a6635ab47f6109f67f0000000000000000000000000000000000000000000000000000000000000000306109e8610d6f565b846109f1610d77565b610d84565b600073ffffffffffffffffffffffffffffffffffffffff1660008054906101000a900473ffffffffffffffffffffffffffffffffffffffff1673ffffffffffffffffffffffffffffffffffffffff1614610aa75760008054906101000a900473ffffffffffffffffffffffffffffffffffffffff166040517f0bf869f6000000000000000000000000000000000000000000000000000000008152600401610a9e91906118bb565b60405180910390fd5b600073ffffffffffffffffffffffffffffffffffffffff168373ffffffffffffffffffffffffffffffffffffffff1603610b8e57600060149054906101000a900460ff168015610b4a575060008054906101000a900473ffffffffffffffffffffffffffffffffffffffff1673ffffffffffffffffffffffffffffffffffffffff16610b31610d6f565b73ffffffffffffffffffffffffffffffffffffffff1614155b15610b81576040517f81d0eba400000000000000000000000000000000000000000000000000000000815260040160405180910390fd5b610b89610e55565b610b99565b610b988383611204565b5b505050565b7fcf58f804f2b6b37a8053db95445338e0b55b7cf8a7b60aad3e5a57a6635ab47f81565b600060149054906101000a900460ff1681565b7fccfec7122b151ec65c7bfcd194d97388aa2aa9511e2e52b2809372fa22abfc0081565b600060159054906101000a900460ff1615610c40576040517fe123821200000000000000000000000000000000000000000000000000000000815260040160405180910390fd5b7fccfec7122b151ec65c7bfcd194d97388aa2aa9511e2e52b2809372fa22abfc00610c9c7f000000000000000000000000000000000000000000000000000000000000000030610c8e610d6f565b84610c97610d77565b610d84565b816001600085815260200190815260200160002060006101000a81548160ff0219169083151502179055507fbd44e0899658529f4f97caea6b325fb080d52be64d6ce26bc4bcd0da003500988383604051610cf8929190611ce8565b60405180910390a1505050565b60007f01ffc9a7000000000000000000000000000000000000000000000000000000007bffffffffffffffffffffffffffffffffffffffffffffffffffffffff1916827bffffffffffffffffffffffffffffffffffffffffffffffffffffffff1916149050919050565b600033905090565b3660008036915091509091565b8573ffffffffffffffffffffffffffffffffffffffff1663fdef910686868686866040518663ffffffff1660e01b8152600401610dc5959493929190611d6f565b602060405180830381865afa158015610de2573d6000803e3d6000fd5b505050506040513d601f19601f82011682018060405250810190610e069190611dd2565b610e4d57858585856040517f32dbe3b4000000000000000000000000000000000000000000000000000000008152600401610e449493929190611dff565b60405180910390fd5b505050505050565b60008060009054906101000a900473ffffffffffffffffffffffffffffffffffffffff16905060008060006101000a81548173ffffffffffffffffffffffffffffffffffffffff021916908373ffffffffffffffffffffffffffffffffffffffff1602179055506000600367ffffffffffffffff811115610ed957610ed8611ab8565b5b604051908082528060200260200182016040528015610f1257816020015b610eff6115c5565b815260200190600190039081610ef75790505b50905060003090506000610f24610339565b90506040518060a0016040528060016002811115610f4557610f44611808565b5b81526020018373ffffffffffffffffffffffffffffffffffffffff1681526020018273ffffffffffffffffffffffffffffffffffffffff168152602001600073ffffffffffffffffffffffffffffffffffffffff1681526020017fcf58f804f2b6b37a8053db95445338e0b55b7cf8a7b60aad3e5a57a6635ab47f81525083600081518110610fd757610fd6611b29565b5b60200260200101819052506040518060a001604052806001600281111561100157611000611808565b5b81526020018373ffffffffffffffffffffffffffffffffffffffff1681526020018573ffffffffffffffffffffffffffffffffffffffff168152602001600073ffffffffffffffffffffffffffffffffffffffff1681526020017fccfec7122b151ec65c7bfcd194d97388aa2aa9511e2e52b2809372fa22abfc008152508360018151811061109357611092611b29565b5b60200260200101819052506040518060a00160405280600160028111156110bd576110bc611808565b5b81526020018373ffffffffffffffffffffffffffffffffffffffff1681526020018573ffffffffffffffffffffffffffffffffffffffff168152602001600073ffffffffffffffffffffffffffffffffffffffff1681526020017fcf58f804f2b6b37a8053db95445338e0b55b7cf8a7b60aad3e5a57a6635ab47f8152508360028151811061114f5761114e611b29565b5b60200260200101819052508073ffffffffffffffffffffffffffffffffffffffff1663e978afe5846040518263ffffffff1660e01b81526004016111939190611cc6565b600060405180830381600087803b1580156111ad57600080fd5b505af11580156111c1573d6000803e3d6000fd5b505050507fc903e67ed840a0c1583a1d33940ef4f0e14efe93d47f1ea818c8aa6995269bc684826040516111f6929190611e44565b60405180910390a150505050565b6000600367ffffffffffffffff81111561122157611220611ab8565b5b60405190808252806020026020018201604052801561125a57816020015b6112476115c5565b81526020019060019003908161123f5790505b5090506000309050600061126c610339565b90506040518060a001604052806000600281111561128d5761128c611808565b5b81526020018373ffffffffffffffffffffffffffffffffffffffff1681526020018673ffffffffffffffffffffffffffffffffffffffff168152602001600073ffffffffffffffffffffffffffffffffffffffff1681526020017fcf58f804f2b6b37a8053db95445338e0b55b7cf8a7b60aad3e5a57a6635ab47f8152508360008151811061131f5761131e611b29565b5b60200260200101819052506040518060a001604052806000600281111561134957611348611808565b5b81526020018373ffffffffffffffffffffffffffffffffffffffff1681526020018673ffffffffffffffffffffffffffffffffffffffff168152602001600073ffffffffffffffffffffffffffffffffffffffff1681526020017fccfec7122b151ec65c7bfcd194d97388aa2aa9511e2e52b2809372fa22abfc00815250836001815181106113db576113da611b29565b5b60200260200101819052506040518060a00160405280856113fd576000611400565b60015b600281111561141257611411611808565b5b81526020018273ffffffffffffffffffffffffffffffffffffffff1681526020018373ffffffffffffffffffffffffffffffffffffffff168152602001600073ffffffffffffffffffffffffffffffffffffffff1681526020017fcf58f804f2b6b37a8053db95445338e0b55b7cf8a7b60aad3e5a57a6635ab47f815250836002815181106114a4576114a3611b29565b5b60200260200101819052508073ffffffffffffffffffffffffffffffffffffffff1663e978afe5846040518263ffffffff1660e01b81526004016114e89190611cc6565b600060405180830381600087803b15801561150257600080fd5b505af1158015611516573d6000803e3d6000fd5b50505050846000806101000a81548173ffffffffffffffffffffffffffffffffffffffff021916908373ffffffffffffffffffffffffffffffffffffffff16021790555083600060146101000a81548160ff0219169083151502179055507f38f27aba039c6f9bd534e21d59de4317df2b13d42567b9b9ddb5677f409776058582600060149054906101000a900460ff166040516115b693929190611e6d565b60405180910390a15050505050565b6040518060a00160405280600060028111156115e4576115e3611808565b5b8152602001600073ffffffffffffffffffffffffffffffffffffffff168152602001600073ffffffffffffffffffffffffffffffffffffffff168152602001600073ffffffffffffffffffffffffffffffffffffffff168152602001600080191681525090565b600080fd5b60007fffffffff0000000000000000000000000000000000000000000000000000000082169050919050565b61168581611650565b811461169057600080fd5b50565b6000813590506116a28161167c565b92915050565b6000602082840312156116be576116bd61164b565b5b60006116cc84828501611693565b91505092915050565b60008115159050919050565b6116ea816116d5565b82525050565b600060208201905061170560008301846116e1565b92915050565b6000819050919050565b61171e8161170b565b811461172957600080fd5b50565b60008135905061173b81611715565b92915050565b6000602082840312156117575761175661164b565b5b60006117658482850161172c565b91505092915050565b600073ffffffffffffffffffffffffffffffffffffffff82169050919050565b6000819050919050565b60006117b36117ae6117a98461176e565b61178e565b61176e565b9050919050565b60006117c582611798565b9050919050565b60006117d7826117ba565b9050919050565b6117e7816117cc565b82525050565b600060208201905061180260008301846117de565b92915050565b7f4e487b7100000000000000000000000000000000000000000000000000000000600052602160045260246000fd5b6003811061184857611847611808565b5b50565b600081905061185982611837565b919050565b60006118698261184b565b9050919050565b6118798161185e565b82525050565b60006020820190506118946000830184611870565b92915050565b60006118a58261176e565b9050919050565b6118b58161189a565b82525050565b60006020820190506118d060008301846118ac565b92915050565b6118df8161170b565b82525050565b60006020820190506118fa60008301846118d6565b92915050565b600081519050919050565b600082825260208201905092915050565b6000819050602082019050919050565b6119358161189a565b82525050565b6000611947838361192c565b60208301905092915050565b6000602082019050919050565b600061196b82611900565b611975818561190b565b93506119808361191c565b8060005b838110156119b1578151611998888261193b565b97506119a383611953565b925050600181019050611984565b5085935050505092915050565b600060208201905081810360008301526119d88184611960565b905092915050565b6119e98161189a565b81146119f457600080fd5b50565b600081359050611a06816119e0565b92915050565b611a15816116d5565b8114611a2057600080fd5b50565b600081359050611a3281611a0c565b92915050565b60008060408385031215611a4f57611a4e61164b565b5b6000611a5d858286016119f7565b9250506020611a6e85828601611a23565b9150509250929050565b60008060408385031215611a8f57611a8e61164b565b5b6000611a9d8582860161172c565b9250506020611aae85828601611a23565b9150509250929050565b7f4e487b7100000000000000000000000000000000000000000000000000000000600052604160045260246000fd5b600081519050611af681611715565b92915050565b600060208284031215611b1257611b1161164b565b5b6000611b2084828501611ae7565b91505092915050565b7f4e487b7100000000000000000000000000000000000000000000000000000000600052603260045260246000fd5b600081519050919050565b600082825260208201905092915050565b6000819050602082019050919050565b60038110611b9557611b94611808565b5b50565b6000819050611ba682611b84565b919050565b6000611bb682611b98565b9050919050565b611bc681611bab565b82525050565b611bd58161170b565b82525050565b60a082016000820151611bf16000850182611bbd565b506020820151611c04602085018261192c565b506040820151611c17604085018261192c565b506060820151611c2a606085018261192c565b506080820151611c3d6080850182611bcc565b50505050565b6000611c4f8383611bdb565b60a08301905092915050565b6000602082019050919050565b6000611c7382611b58565b611c7d8185611b63565b9350611c8883611b74565b8060005b83811015611cb9578151611ca08882611c43565b9750611cab83611c5b565b925050600181019050611c8c565b5085935050505092915050565b60006020820190508181036000830152611ce08184611c68565b905092915050565b6000604082019050611cfd60008301856118d6565b611d0a60208301846116e1565b9392505050565b600082825260208201905092915050565b82818337600083830152505050565b6000601f19601f8301169050919050565b6000611d4e8385611d11565b9350611d5b838584611d22565b611d6483611d31565b840190509392505050565b6000608082019050611d8460008301886118ac565b611d9160208301876118ac565b611d9e60408301866118d6565b8181036060830152611db1818486611d42565b90509695505050505050565b600081519050611dcc81611a0c565b92915050565b600060208284031215611de857611de761164b565b5b6000611df684828501611dbd565b91505092915050565b6000608082019050611e1460008301876118ac565b611e2160208301866118ac565b611e2e60408301856118ac565b611e3b60608301846118d6565b95945050505050565b6000604082019050611e5960008301856118ac565b611e6660208301846118ac565b9392505050565b6000606082019050611e8260008301866118ac565b611e8f60208301856118ac565b611e9c60408301846116e1565b94935050505056fea2646970667358221220c3ed1c66ea1b90b4848e6f81ccaa40bb0290246ecd93ce0664ac3fb8a0cc9ec064736f6c63430008110033",
  "linkReferences": {},
  "deployedLinkReferences": {}
}